:020000040000FA
:020000000528D1
:06000A008601850183164A
:1000100003178801831603178901831603138601CA
:1000200083120313412017308600382015308600D4
:100030003E201D3086003820153086003E203530A9
:1000400086003820153086003E2014308600382087
:10005000153086003E20113086003820153086008D
:100060003E20053086003820153086003E201328BB
:10007000910112158C1C3A288C10080005183E2896
:080080000800920912110800AA
:02400E00E120AF
:00000001FF
